{
  "contractName": "StepUpTokenSale",
  "abi": [
    {
      "inputs": [
        {
          "internalType": "address",
          "name": "_owner",
          "type": "address"
        },
        {
          "internalType": "address",
          "name": "_token",
          "type": "address"
        }
      ],
      "stateMutability": "nonpayable",
      "type": "constructor"
    },
    {
      "anonymous": false,
      "inputs": [
        {
          "indexed": true,
          "internalType": "address",
          "name": "buyer",
          "type": "address"
        },
        {
          "indexed": true,
          "internalType": "uint256",
          "name": "saleCount",
          "type": "uint256"
        }
      ],
      "name": "TokenSale",
      "type": "event"
    },
    {
      "anonymous": false,
      "inputs": [
        {
          "indexed": true,
          "internalType": "address",
          "name": "buyer",
          "type": "address"
        },
        {
          "indexed": true,
          "internalType": "uint256",
          "name": "saleCount",
          "type": "uint256"
        }
      ],
      "name": "TokenSaleFailed",
      "type": "event"
    },
    {
      "inputs": [],
      "name": "owner",
      "outputs": [
        {
          "internalType": "address",
          "name": "",
          "type": "address"
        }
      ],
      "stateMutability": "view",
      "type": "function",
      "constant": true
    },
    {
      "inputs": [],
      "name": "pricePerEth",
      "outputs": [
        {
          "internalType": "uint256",
          "name": "",
          "type": "uint256"
        }
      ],
      "stateMutability": "view",
      "type": "function",
      "constant": true
    },
    {
      "inputs": [],
      "name": "token",
      "outputs": [
        {
          "internalType": "contract IERC20",
          "name": "",
          "type": "address"
        }
      ],
      "stateMutability": "view",
      "type": "function",
      "constant": true
    },
    {
      "inputs": [],
      "name": "buyTokens",
      "outputs": [],
      "stateMutability": "payable",
      "type": "function",
      "payable": true
    }
  ],
  "bytecode": "0x608060405234801561001057600080fd5b506040516107793803806107798339818101604052810190610032919061011d565b816000806101000a81548173ffffffffffffffffffffffffffffffffffffffff021916908373ffffffffffffffffffffffffffffffffffffffff16021790555080600160006101000a81548173ffffffffffffffffffffffffffffffffffffffff021916908373ffffffffffffffffffffffffffffffffffffffff160217905550505061015d565b600080fd5b600073ffffffffffffffffffffffffffffffffffffffff82169050919050565b60006100ea826100bf565b9050919050565b6100fa816100df565b811461010557600080fd5b50565b600081519050610117816100f1565b92915050565b60008060408385031215610134576101336100ba565b5b600061014285828601610108565b925050602061015385828601610108565b9150509250929050565b61060d8061016c6000396000f3fe60806040526004361061003f5760003560e01c80638da5cb5b1461004457806395ae19881461006f578063d0febe4c1461009a578063fc0c546a146100a4575b600080fd5b34801561005057600080fd5b506100596100cf565b60405161006691906102fb565b60405180910390f35b34801561007b57600080fd5b506100846100f3565b604051610091919061032f565b60405180910390f35b6100a26100f8565b005b3480156100b057600080fd5b506100b9610294565b6040516100c691906103a9565b60405180910390f35b60008054906101000a900473ffffffffffffffffffffffffffffffffffffffff1681565b606481565b6000341161013b576040517f08c379a000000000000000000000000000000000000000000000000000000000815260040161013290610421565b60405180910390fd5b600060643461014a9190610470565b9050600160009054906101000a900473ffffffffffffffffffffffffffffffffffffffff1673ffffffffffffffffffffffffffffffffffffffff166323b872dd60008054906101000a900473ffffffffffffffffffffffffffffffffffffffff1633846040518463ffffffff1660e01b81526004016101cb939291906104ca565b6020604051808303816000875af11580156101ea573d6000803e3d6000fd5b505050506040513d601f19601f8201168201806040525081019061020e919061053e565b61024d576040517f08c379a0000000000000000000000000000000000000000000000000000000008152600401610244906105b7565b60405180910390fd5b803373ffffffffffffffffffffffffffffffffffffffff167f4da47ba0d1e881f0ec30f86a50eafb90abb9641d4757b8968faa3a35701dab7560405160405180910390a350565b600160009054906101000a900473ffffffffffffffffffffffffffffffffffffffff1681565b600073ffffffffffffffffffffffffffffffffffffffff82169050919050565b60006102e5826102ba565b9050919050565b6102f5816102da565b82525050565b600060208201905061031060008301846102ec565b92915050565b6000819050919050565b61032981610316565b82525050565b60006020820190506103446000830184610320565b92915050565b6000819050919050565b600061036f61036a610365846102ba565b61034a565b6102ba565b9050919050565b600061038182610354565b9050919050565b600061039382610376565b9050919050565b6103a381610388565b82525050565b60006020820190506103be600083018461039a565b92915050565b600082825260208201905092915050565b7f4e6f2045746865722073656e7400000000000000000000000000000000000000600082015250565b600061040b600d836103c4565b9150610416826103d5565b602082019050919050565b6000602082019050818103600083015261043a816103fe565b9050919050565b7f4e487b7100000000000000000000000000000000000000000000000000000000600052601160045260246000fd5b600061047b82610316565b915061048683610316565b9250817fffffffffffffffffffffffffffffffffffffffffffffffffffffffffffffffff04831182151516156104bf576104be610441565b5b828202905092915050565b60006060820190506104df60008301866102ec565b6104ec60208301856102ec565b6104f96040830184610320565b949350505050565b600080fd5b60008115159050919050565b61051b81610506565b811461052657600080fd5b50565b60008151905061053881610512565b92915050565b60006020828403121561055457610553610501565b5b600061056284828501610529565b91505092915050565b7f54726173666572204661696c6564000000000000000000000000000000000000600082015250565b60006105a1600e836103c4565b91506105ac8261056b565b602082019050919050565b600060208201905081810360008301526105d081610594565b905091905056fea2646970667358221220db22f5d323cc7994a84a6bfa39611f94cc07ceb7cf60a7a07a2dcf2757c7219164736f6c634300080d0033",
  "immutableReferences": {},
  "source": "// SPDX-License-Identifier: MIT\r\npragma solidity ^0.8.13;\r\n\r\nimport \"@openzeppelin/contracts/token/ERC20/IERC20.sol\";\r\n\r\ncontract StepUpTokenSale {\r\n    address public owner;\r\n    IERC20 public token;\r\n    uint256 public constant pricePerEth = 100;\r\n\r\n    event TokenSale(address indexed buyer, uint256 indexed saleCount);\r\n    event TokenSaleFailed(address indexed buyer, uint256 indexed saleCount);\r\n\r\n    constructor(address _owner, address _token) {\r\n        owner = _owner;\r\n        token = IERC20(_token);\r\n    }\r\n\r\n    function buyTokens() external payable {\r\n        require(msg.value > 0, \"No Ether sent\");\r\n\r\n        uint256 saleCount = msg.value * pricePerEth;\r\n\r\n        // try token.transferFrom(owner, msg.sender, saleCount) {\r\n        //     emit TokenSale(msg.sender, saleCount);\r\n        // } catch {\r\n        //     emit TokenSaleFailed(msg.sender, saleCount);\r\n        // }\r\n\r\n        require(\r\n            token.transferFrom(owner, msg.sender, saleCount),\r\n            \"Trasfer Failed\"\r\n        );\r\n        emit TokenSale(msg.sender, saleCount);\r\n    }\r\n}\r\n",
  "sourcePath": "C:\\Users\\Sudeep\\Desktop\\StepUpSale\\contracts\\StepUpTokenSale.sol",
  "compiler": {
    "name": "solc",
    "version": "0.8.13+commit.abaa5c0e.Emscripten.clang"
  },
  "schemaVersion": "3.4.2",
  "updatedAt": "2022-10-07T11:16:01.389Z",
  "networkType": "ethereum",
  "devdoc": {
    "kind": "dev",
    "methods": {},
    "version": 1
  },
  "userdoc": {
    "kind": "user",
    "methods": {},
    "version": 1
  }
}